:020000040800F2
:10000000F81E0020FD010008E3280008FB26000878
:10001000E12800086D090008F52E00080000000026
:100020000000000000000000000000006501000862
:10003000FD0E000800000000A90100089D2A00082C
:10004000170200081702000817020008170200082C
:10005000170200081702000817020008170200081C
:10006000170200081702000817020008170200080C
:1000700017020008950D0008170200081702000873
:10008000170200081702000817020008CD0900082F
:10009000710900081702000817020008170200087B
:1000A00017020008170200081702000817020008CC
:1000B00017020008170200081702000817020008BC
:1000C00017020008170200081702000817020008AC
:1000D000170200081702000817020008DD2E0008AA
:1000E00017020008170200081702000800000000AD
:1000F0000000000000000000000000000000000000
:1001000000000000000000001702000817020008AD
:10011000170200081702000817020008170200085B
:10012000170200081702000817020008170200084B
:10013000170200080000000000000000170200087D
:10014000170200081702000817020008170200082B
:10015000DFF80CD000F0F8FB00480047913A0008A7
:10016000F81E0020224B19680868B0E8F00F80F3F1
:100170000988BFF36F8F4FF0000080F311884EF0B5
:100180000D0E70470000000006480068006880F30C
:10019000088862B661B6BFF34F8FBFF36F8F00DF81
:1001A00000BF00BF08ED00E0EFF30980BFF36F8FE1
:1001B0000F4B1A6820E9F00F106008B54FF050009F
:1001C00080F31188BFF34F8FBFF36F8F04F062FA93
:1001D0004FF0000080F31188BDE8084019680868F6
:1001E000B0E8F00F80F30988BFF36F8F704700BF4E
:1001F00058000020EFF30580704700000648804754
:1002000006480047FEE7FEE7FEE7FEE7FEE7FEE7FB
:10021000FEE7FEE7FEE7FEE70D2B000851010008B0
:100220002DE9F05F0546002092469B46884606462B
:10023000814640241BE0284641464746224600F0BE
:1002400020F853465A46C01A914110D31146184619
:10025000224600F093FA2D1A67EB01084F4622461A
:100260000120002100F08AFA17EB00094E41201E00
:10027000A4F10104DFDC484631462A464346BDE886
:10028000F09F202A04DB203A21FA02F00021704777
:1002900021FA02F3D040C2F12002914008431946EE
:1002A000704740EA01039B0703D009E008C9121F09
:1002B00008C0042AFAD203E011F8013B00F8013B20
:1002C000521EF9D27047D2B201E000F8012B491E4C
:1002D000FBD270470022F6E710B513460A460446E3
:1002E0001946FFF7F0FF204610BD30B480EA010246
:1002F00002F0004530F0004221F0004013D090B1F0
:10030000C30DD40DC2F31601C0F31600E41A41F474
:10031000000140F400027D34914201D3641C00E0EE
:100320004900002C02DA30BC002070474FF4000076
:100330000023914201D3891A034340084FEA410147
:10034000F7D151B1914202D14FF0004105E002D204
:100350004FF0010101E06FF0010103EBC4502844AC
:1003600030BC00F02CBA2DE9FE4F804681EA030034
:10037000C00F0C46009021F0004123F00045B8EB7F
:100380000200A94105D24046214690461C460B4634
:10039000024623F00040104347D0270DC7F30A0060
:1003A000C3F30A510290401A019040286BDAC3F35C
:1003B000130040F4801B0098924620B10023D2EB3A
:1003C000030A63EB0B0B01985946C0F140025046FB
:1003D00000F0D4F906460D4650465946019A00F001
:1003E000DCF910EB08006141002487EA115284EA2D
:1003F000E7731A4340D0009A62B3019A012A4FEA88
:10040000075215DC001B61EB02014FF0004202EACB
:100410000752CDE90042001C41F5801132462B46BF
:1004200000F013FA03B0BDE8F08F40462146F9E72B
:10043000001B61EB0201001C41F5801300185B41B9
:100440002018A2F5001747EB030140EAD570B61952
:100450006D4111E06D084FEA360645EAC0754FEA76
:100460000752001B61EB0201001C41F58011490895
:100470004FEA30000019514132462B4603B0BDE827
:10048000F04F00F0D3B90098012240000023D0EBD8
:10049000020263EBE073009821464FEAE074B8EB88
:1004A000000061EB0401E9E783F000435BE781F0C2
:1004B000004158E72DE9FE4F81EA030404F00044AF
:1004C00021F0004100944FF0000B23F0004350EA6C
:1004D00001045ED052EA03045BD0C3F30A54C1F3B3
:1004E0000A552C44A4F2F3340194A0FB0254C1F346
:1004F000130141F48011C3F3130343F4801301FB90
:10050000024400FB034E840A970A44EA815447EAF6
:100510008357A4FB076802958D0A05FB07854FEA00
:10052000932C04FB0C542705029D4FEA065847EA1A
:100530001637B5EB08056EEB070C870E920E47EAEF
:10054000811742EA8312A7FB0201B6EB0B0164EBB1
:1005500000042B0D43EA0C335E1844EB1C50DA46C2
:100560005146E7FB0201C5F313044FEA0B3343EA9C
:1005700014534FEA0432019C43EA0603A4F10C042D
:100580000294009CCDE900B400F05FF903B0BDE82F
:10059000F08F00200146F9E72DE9F04D81EA0304D0
:1005A00004F0004B21F0004514464FF0000A23F000
:1005B000004150EA050220D054EA01021DD0C5F3E3
:1005C0000A570246C5F31303C1F31300C1F30A56D9
:1005D00040F4801543F48013A7EB0608101BD646A1
:1005E00008F2FD3873EB050002D308F1010801E0C1
:1005F00092185B41B8F1000F03DA00200146BDE814
:10060000F08D00204FF48011064684460EE0171B43
:1006100073EB050705D3121B63EB050306434CEA96
:10062000010C49084FEA300092185B4150EA01077B
:10063000EDD152EA030012D082EA040083EA0501F8
:10064000084305D0101BAB4106D20122002306E06F
:1006500000224FF0004302E06FF0010253101AEB4A
:1006600006004CEB085110EB0A0041EB0B01BDE812
:10067000F04D00F0DBB8C10F80EAE0700844CA0713
:100680009623002100F0A4B896230022114600F022
:100690009FB80EB5C10F80EAE0700844CA07002178
:1006A00040F233438DE80E000A460B4600F0CDF8C9
:1006B00003B000BD70B5C1F30A5201F0004500243B
:1006C000C1F3130140F2FF3341F480119A4201DA81
:1006D000002070BD40F233439A42A2F2334203DC61
:1006E0005242FFF7CEFD00E090402C43F1D0404253
:1006F00070BD00F0004230F000400AD0C10D01F59D
:100700006071C0F3160042EA0151C208400711436C
:10071000704700200146704701F0004330B421F0DB
:10072000004150EA010206D00A0DA2F56072C1F341
:100730001301002A02DC30BC00207047440F44EA59
:10074000C104C100E01830BC00EBC25000F037B863
:1007500030B50B46014600202022012409E021FA91
:1007600002F59D4205D303FA02F5491B04FA02F58E
:100770002844151EA2F10102F1DC30BD202A04DB61
:10078000203A00FA02F1002070479140C2F12003A4
:1007900020FA03F3194390407047202A06DBCB1759
:1007A000203A41FA02F043EAE07306E041FA02F32C
:1007B000D040C2F1200291400843194670470029F9
:1007C000A8BF7047401C490008BF20F001007047D7
:1007D00010B4B0FA80FC00FA0CF050EA010404BF37
:1007E00010BC704749B1CCF1200421FA04F411FA8D
:1007F0000CF118BF012121430843A3EB0C01CB1DD1
:100800004FEA00614FEA102042BF002010BC704741
:1008100000EBC35010440029A4BF10BC7047401C1B
:10082000490008BF20F0010010BC704710B5141E2D
:1008300073F1000408DA401C41F1000192185B4199
:100840001A4301D120F0010010BD2DE9F04D924670
:100850009B4611B1B1FA81F202E0B0FA80F2203287
:100860009046FFF78BFF04460F4640EA0A0041EA34
:100870000B0153465A46084313D0114653EA010070
:1008800019D0C8F140025046FFF7FBFC05460E4662
:10089000504659464246FFF771FF084305D00120F4
:1008A00004E020463946BDE8F08D0020054346EAC5
:1008B000E0762C4337430A986305E40AA0EB08006E
:1008C0000022FD0A44EA47540A3002D500200146BE
:1008D000E9E7010510196941DDE908450019694199
:1008E000BDE8F04DA2E7C1F30A52C1F3130140F293
:1008F000FF3341F480119A4202DA0020014670472A
:1009000040F233439A42A2F2334202DC5242FFF7F2
:10091000B8BCFFF733BF000030B5041E71F100040E
:1009200004DB4FF00044404264EB0101141E73F1FC
:10093000000405DB1C464FF00043524263EB040306
:10094000994208BF904230BD064C074D06E0E06872
:1009500040F0010394E8070098471034AC42F6D306
:10096000FFF7FAFBB84A0008D84A0008FEE7000083
:10097000014800F04BBB0000A8060020F0B4124C68
:10098000049D266B3060266B0020B060266BF06003
:10099000266B08203061266B080A3075206B417584
:1009A000216B100A8875206BC275216B180A0876B6
:1009B000206B4376216B280A8876206BC57620460B
:1009C000F0BC00F0A5BD0000A8060020014800F022
:1009D0001DBB0000A806002010B5002958D0826B6E
:1009E0004FF4D873046803EB0113E45814F00404C3
:1009F00094600468E4584DD0E40854600468E358F7
:100A000003F00203D3604FF4DA73046803EB0113BD
:100A1000E45804F00F04146111620468E358C3F34E
:100A20000723D3614FF4DC73046803EB0113E4582C
:100A300014750468E458240A54750468E458240CB6
:100A400094750468E3581B0ED3754FF4DE73046885
:100A500003EB0113E45814760468E458240A54762E
:100A60000468E458240C94760468E3581B0ED3768B
:100A70000368202289B11A610268536923F0500388
:100A8000536190F83C20222A0DD0322A0BD00FE07F
:100A9000426BA5E7640D1460B0E7DA600268536941
:100AA00023F00A03ECE70268536923F40F43536110
:100AB00012220123002990F83C1006D0522915D0AB
:100AC000622916D0722906D115E042290ED062297A
:100AD00008D0722908D080F83C3000BF00F0E0FC5C
:100AE000002010BD322107E0522105E080F83C20B3
:100AF000F4E7222100E0422180F83C10EEE70000FC
:100B000000B58BB000210122CDE9061203910091BE
:100B100008920491019102910E22059109920449D3
:100B200001631C314163694600F0F6F90BB000BD6A
:100B3000BC00002070B50C46054664A100F006F923
:100B400018B1204603F09AF8B9E061A1284600F0F8
:100B5000FDF818B1204603F0D5F8B0E05DA12846B5
:100B600000F0F4F818B1204603F010F9A7E05AA1FC
:100B7000284600F0EBF818B1204603F035F99EE066
:100B800056A1284600F0E2F80028DDD154A12846FD
:100B900000F0DCF80028D7D152A1284600F0D6F8A2
:100BA0000028D1D150A1284600F0D0F80028CBD1A0
:100BB0004EA1284600F0CAF80028C5D14CA128460D
:100BC00000F0C4F800287AD14AA1284600F0BEF807
:100BD000002874D148A1284600F0B8F800286ED14A
:100BE00046A1284600F0B2F8002868D144A1284662
:100BF00000F0ACF8002862D142A1284600F0A6F827
:100C000000285CD140A1284600F0A0F8002856D169
:100C10003EA1284600F09AF8002850D13CA1284671
:100C200000F094F800284AD13AA1284600F08EF846
:100C3000002844D138A1284600F088F800283ED189
:100C400036A1284600F082F8C8BB35A1284600F03E
:100C50007DF8A0BB33A1284600F078F878BB32A11C
:100C6000284600F073F850BB30A1284600F06EF81B
:100C700010B102F0FFFE22E02DA1284600F066F838
:100C8000E8B92CA1284600F061F8C0B92AA128468D
:100C900000F05CF898B929A1284600F057F870B91F
:100CA00027A1284600F052F848B926A1284600F0AE
:100CB0004DF820B924A1284600F048F808B10020DA
:100CC00070BD2146284602F093FDF8E72A31000066
:100CD0002A3200002A3300002A3400002A3500009E
:100CE0002A3600002A3700002A3800002A3900007E
:100CF000233100002332000023330000233400009E
:100D0000233500002336000040310000403200004F
:100D10004033000040340000403500004036000001
:100D20004037000040380000403900002431000006
:100D30002432000024330000243400002436000054
:100D400024370000243800002439000030B50C4658
:100D5000054601F087FE0346204601F083FE8342EC
:100D60000AD1002004E0295C225C914204D1401C9D
:100D70009842F8DB012030BD002030BD0022835CAA
:100D800023B18B54521C642AF9DB00E08B54012000
:100D90007047000008B5064800F0E6FC05480078FA
:100DA00000F064F80448006801684068009008BDDD
:100DB000C40900205C0100208409002030B590F8AF
:100DC00040500124AC40C56B6C60046863604368AC
:100DD000102B036803D099600068C26030BD9A6030
:100DE0000068C16030BD00002DE9F0478146002752
:100DF000012601F037FE050003D00024DFF86480EF
:100E00002CE00020BDE8F087621C2146484601F036
:100E100031FE15A1FFF79AFF78B1224639464846C0
:100E200001F028FE01F096FDFFF763FC08EBC60217
:100E3000671CC2E90001761C0FE0281B01280CD1B9
:100E40002A463946484601F015FE01F083FDFFF7BA
:100E500050FC08EBC602C2E90001641CAC42D3DBC3
:100E60003046CFE7C00200202000000070B52149C5
:100E7000214B28280A780BD012B19854521C0A70C2
:100E800029280BD10024D0B225461C540C700BE04D
:100E9000002AF2D1282018700120087070BD58195E
:100EA000407858556D1CEDB2134801F0DBFD401E33
:100EB000A842F4DC104801F0D5FD18440E4A00F8B1
:100EC000024C503AA2F114010B4801F01BFD0A48F4
:100ED0005038FFF789FF014607486438FFF72AFEBC
:100EE0000549002050390C54401CC0B26428FAD384
:100EF00070BD000004000020F4010020704770471E
:100F000002460020431E115C202904D011B1401C70
:100F10006428F8DB18467047F0B50C7D012303FA0E
:100F200004F20468D4F800524E6A25F47C5503EBB1
:100F300006231D43C4F800520368D3F81C429443AF
:100F4000C3F81C424FF41073CD691C1DBDB9056870
:100F5000D5F80C629643C5F80C628E894D684F69CE
:100F600066F31F45066803EBC707F5510E890D6848
:100F70004F6966F31F45066804EBC707F551CD6955
:100F8000012D17D10568D5F80C621643C5F80C621F
:100F90000E884D684F6966F31F45066803EBC7036B
:100FA000F5500D89CB684E6965F31F43056804EB66
:100FB000C6042B518B69002B0368D3F8044211D06F
:100FC00054EA0204C3F804420B69002B0368D3F807
:100FD000144209D054EA0204C3F81442096A0129F0
:100FE00004D009E09443EDE79443F5E70168D1F8B4
:100FF0001C321343C1F81C320068D0F8001221F0F3
:101000000101C0F800120020F0BD70472DE9F04149
:10101000044600680026C168C1F300134169C1F3AA
:10102000C002102113B10AB14E01C16020680269EB
:101030004369C2F30012C3F380131AB113B146F42B
:1010400080660161216848694FF00105C043C0070F
:101050004ED18A687648904323D000208B68754A29
:101060009A4320D000228F68734BBB431DD00023CE
:10107000104318433CD088688A68C0F340008B68EE
:10108000C2F3402203F001031043184329D04A69F8
:10109000204622F001024A6194F83C10122906D041
:1010A0000AE00120DAE70122DDE70123E0E7016839
:1010B0004A6922F40F424A6190F83C10422908D054
:1010C000522908D0722908D080F83C5000F0B2FABA
:1010D00009E0222102E0322100E0622180F83C1088
:1010E000F4E746F4006620688168544A1143816041
:1010F0002168C868496910F0030FC1F3400104D0AA
:1011000019B100212046FFF767FC21680869496989
:1011100010F0030FC1F3001104D019B101212046D2
:10112000FFF75AFC206C30432064206881694269D3
:1011300011F0010F4369C2F30022C3F3C03305D09D
:1011400022B11BB1216C41F0010121648169C1F31D
:1011500040034169C1F340224169C1F3C0312BB161
:1011600022B119B1216C41F0020121648169C1F3FE
:10117000800341694269C1F38021C2F3C0322BB1BF
:1011800021B11AB1216C41F004012164816911F08F
:10119000700F08D000224169C1F3C0234169C1F337
:1011A000C03112B121E00122F5E7F3B1E9B1816963
:1011B00001F0700140292FD006DC102909D0202928
:1011C0000BD030290DD123E0502929D0602908D136
:1011D0002AE0216C41F0080102E0216C41F010018D
:1011E0002164816921F070018161206C00280DD09B
:1011F00021680420486084F83C502068416948F622
:101200005B72914341612046FFF7FFFEBDE8F0812C
:10121000216C41F02001E3E7216C41F04001DFE760
:10122000216C41F08001DBE7216C41F48071D7E74C
:101230000100000400010008000001100905010080
:101240002DE9F04104004FF0000504D094F83C0073
:10125000002618B107E00120BDE8F08184F83D6068
:10126000204600F083F8022084F83C0020680168E2
:1012700021F0020101602068016841F00101016074
:1012800000F00AFD07464FF0030804E000F004FDFB
:10129000C01B0A2853D820684068C007F6D02168D0
:1012A0004868C00758D0A069012801D145F08005E1
:1012B000E06901282FD025F04000226A012A2DD0B4
:1012C00020F02000626A012A2BD020F01000A26AD0
:1012D000012A29D020F00800E26A012A27D020F054
:1012E00004000A6822F0FC0202430A60D4E9020109
:1012F0000843D4E90412114308436168491E0843B6
:101300002168C8612068016821F00101016000F0D6
:10131000C3FC054618E045F04000CEE740F0200051
:10132000D0E740F01000D2E740F00800D4E740F0EA
:101330000400D6E700F0B0FC401B0A2804D904F8EA
:101340003C8F0320667087E720684068C007F1D1B2
:1013500020684068C00703D0042084F83C007AE786
:101360002664012084F83C00002075E7F0B585B0C4
:101370000021464A0091019102910391036810688F
:10138000414F434C022503264249401CBB423AD1FF
:101390001060012807D1C86940F00070C861C869B1
:1013A00000F000700490886940F008008861886946
:1013B000694600F0080004904FF4807000902046C9
:1013C00000F082FB4FF40070CDE9000569460396FA
:1013D000204600F079FB3048416821F4C04141F0DB
:1013E000E06141F48041416000220521132000F0BA
:1013F000C3FC132000F0B4FC00220521142000F0EF
:10140000BBFC14203BE0254FBB423AD1CB6943F0F3
:101410008063CB61CB69012803F080630493106083
:1014200007D1C86940F00070C861C86900F0007059
:101430000490886940F0080088618869694600F076
:10144000080004904FF480500090204600F03CFBD0
:101450004FF40050CDE9000569460396204600F0A0
:1014600033FB002205213F2000F086FC3F2000F0E6
:1014700077FC00220521402000F07EFC402000F097
:101480006FFC05B0F0BD0000006400403400002097
:10149000000C0140001002400000014000680040C4
:1014A00010B5174A0168914229D1406B1549164C75
:1014B0000068A0F50070013804D001280AD0022885
:1014C00017D10FE00F48103002F08EFA6088401CF0
:1014D00060800EE00B48303002F086FA2089401C14
:1014E000208106E00748503002F07EFAE089401C77
:1014F000E08106480068416941F00201416110BD88
:1015000000640040EC00002048060020A8060020EF
:1015100070B503689968490105D49968090102D436
:101520009968C9007ED590F83D10012907D00121A6
:1015300080F83D109968490103D5002207E0022098
:1015400070BD9968090101D5012200E002224FF423
:10155000C07101EB02115C5804F001045C50036B94
:101560009C68ECB3066875582543DC685B6844EA00
:10157000C3031D437550036B1C7C04F00F041C61F6
:101580004FF4C273046803EB0213E55825F00F050E
:10159000E5500468E558066B36693543E550036B42
:1015A0004FF4C47505EB02151C7DD3F8153044EAE1
:1015B000032304686351036B4FF4C67505EB0212F5
:1015C0001C7ED3F8193044EA03230468A35090F832
:1015D0003C20222A10D0322A10D0622A23D000E0E8
:1015E00001E012220BE004686558DE681B88354371
:1015F00045EA43536350BEE7422200E0522280F89E
:101600003C200022026480F83D200268535843F0D9
:10161000010353500068416948F60172114341616A
:10162000002070BD01E07222E9E7042180F83C103F
:101630000120F6E7704700002DE9F05F90F82110D7
:101640000024022903D004218163012485E001687C
:101650000A6822F00E020A6001680A6822F001029C
:101660000A603F4E3E4FB215DFF8F4C0DFF8F0904D
:10167000DFF8ECA0DFF8E8B0DFF8E4E00168783FDD
:1016800013011502ACF1640CA9F15009AAF13C0A4E
:10169000ABF1280BAEF1140E4FF48018B14227D9EC
:1016A000B9420ED0614512D049451DD0514518D0E0
:1016B000594518D0714501D1424615E0294EB14235
:1016C00001D1012210E0274E1436B14201D110227F
:1016D0000AE0244E2836B14206D0224A3C329142DA
:1016E00001D11A4600E02A461E49091F0A602BE074
:1016F000B94213D0614517D0494522D051451DD07C
:1017000059451DD0714501D142461AE0B14202D17E
:101710004FF0807215E0134EB14201D1012210E06A
:10172000104E1436B14201D110220AE00D4E283677
:10173000B14206D00B4A3C32914201D11A4600E038
:101740002A46074980394A60012180F8211000218A
:1017500080F82010416B01B188472046BDE8F09F1A
:1017600080000240080402402DE9F05FC16B0A6866
:1017700001680B68046C4FF0040808FA04F8844D03
:10178000844E854FDFF814C2DFF81492DFF814A2FC
:10179000DFF814B2DFF814E218EA020F65D05FEA4E
:1017A000437862D50A68920603D40A6822F00402DC
:1017B0000A60DFF8F0814FF48062016808F11408D4
:1017C00013011402414524D9A9420DD0B1420FD0D2
:1017D000B9421AD0614515D0494515D0514501D1BE
:1017E000120312E0594501D104220EE0714501D1E6
:1017F00040220AE06D4D1435A94206D06B4A2832CA
:10180000914201D11A4600E022466749091F0A6049
:1018100029E0A94213D0B14215D0B94220D0614588
:101820001BD049451BD0514502D14FF4800217E02F
:10183000414502D14FF0806212E0594501D10422A6
:101840000EE0714501D140220AE0584D1435A942FD
:1018500006D0564A2832914201D11A4600E022466B
:101860004B4908394A60C16A71E04FF0020808FA32
:1018700004F818EA020F70D05FEA83786DD50A6821
:10188000920606D40A6822F00A020A60012180F852
:101890002110DFF810814FF40072016808F114087C
:1018A00013011402414524D9A9420DD0B1420FD0F1
:1018B000B9421AD0614515D0494515D0514501D1DD
:1018C000120312E0594501D102220EE0714501D107
:1018D00020220AE0354D1435A94206D0334A283279
:1018E000914201D11A4600E022462F49091F0A60A1
:1018F00029E0A94213D0B14215D0B94220D06145A8
:101900001BD049451BD0514502D14FF4001217E0BE
:10191000414502D14FF0007212E0594501D1022237
:101920000EE0714501D120220AE0204D1435A94274
:1019300006D01E4A2832914201D11A4600E02246C2
:10194000134908394A60002180F82010816A002973
:101950001CD0BDE8F05F0847FFE70825A540154209
:1019600014D01A0712D50A6822F00E020A6090F805
:101970004020C36B012101FA02F25A60816380F8B2
:101980002110002180F82010016BE0E7BDE8F09FF6
:10199000080002401C0002403000024044000240A7
:1019A000580002406C000240080402401C0402403F
:1019B00030B560B11C4A03681421934209D21B4A16
:1019C0001A44B2FBF1F18900016419490AE00120CF
:1019D00030BD154A52421A44B2FBF1F1890001644C
:1019E00011490839C163022180F821101A6843F6B1
:1019F000F0718A43F0E901142143D0E902452C43F8
:101A000021430469214344692143846921431143EB
:101A10001960002141628162C16201634163012258
:101A200042770177084630BD08040240F8FFFDBF49
:101A30000000024070B5044690F8200000250128FF
:101A40000CD0012084F8200094F821600020012EA1
:101A500006D084F820000225284670BD022070BD03
:101A6000022684F82160A0632068066826F001063B
:101A700006602046FFF7A2F9E06A002820680168A6
:101A800002D041F00E0106E021F00401016020685F
:101A9000016841F00A0101602068016841F001011C
:101AA0000160D9E770B5044600F0F6F80546601C01
:101AB00002D004480078044400F0EEF8401BA04235
:101AC000FAD370BD4C0000202DE9F84FDFF890A14B
:101AD00000220AF1040B144601274FF00F090BF105
:101AE000040E00BF0B6807FA04F52B40AB4274D11B
:101AF000DFF870C14E68A6EB0C0866452BD00DDCF4
:101B0000032E34D005DC36B3012E19D0022E2FD18E
:101B10001BE0112E16D0122E2AD119E0B8F5881F1D
:101B200019D006DCB8F5803F15D0B8F5801F1FD15D
:101B300011E0B8F5001F0ED0B8F5041F18D10AE067
:101B4000CA6815E0CA68121D12E0CA6808320FE0C0
:101B5000CA680C320CE08A682AB1012A4FF00802E8
:101B600003D0456104E0042202E0056100E00022A8
:101B7000FF2B01D8064601E000F104064FEA840578
:101B800001D9A5F12005D6F800C009FA05F82CEA1C
:101B9000080C02FA05F54CEA050CC6F800C04D68C1
:101BA000ED0057D5304DAE6946F00106AE61AD6926
:101BB00024F0030605F0010500952C4D06EB050CFD
:101BC000DCF80850A6074FEA167809FA08F6B5437C
:101BD000274EB04202D1002610E03BE0254EB04235
:101BE00001D101260AE0244EB04201D1022605E0CF
:101BF000224EB04201D1032600E0042606FA08F680
:101C00002E43CCF808604D68DAF80060ED035546C5
:101C100001D51E4300E09E432E604D68DBF8006056
:101C2000AD035D4601D51E4300E09E432E604D6826
:101C3000DEF80060ED02754601D51E4300E09E43CC
:101C40002E604D68AD020E4D2E6801D51E4300E09A
:101C50009E432E60641C102CFFF444AFBDE8F88F47
:101C6000000401400000111000100240000001407B
:101C700000080140000C0140001001400014014028
:101C80000C040140C2684A40C26070470AB1016159
:101C900070470904FBE700000148806870470000B6
:101CA0004C0000200248816802781144816070472E
:101CB0004C000020074810B5016841F01001016098
:101CC000032000F079F80F2000F006F800F024F867
:101CD000002010BD0020024070B50D4D04464FF4A9
:101CE0007A712878B1FBF0F00A490968B1FBF0F08D
:101CF00000F084FB48B9102C07D200222146501E68
:101D000000F03AF800206C6070BD012070BD00004A
:101D10004C000020480000200F4808B5816941F0C0
:101D200001018161816901F001010091C16941F006
:101D30008051C161C069002200F0805000900F21E5
:101D4000901E00F019F80548416821F0E06141F06B
:101D50000071416008BD0000001002400000014019
:101D600000F01F02012191404009800000F1E020B5
:101D7000C0F8001170470000F0B40E4B1B680C4611
:101D8000C3F30223C3F10705042D00D90425191D4F
:101D9000072901D2002300E0DB1E012606FA05F127
:101DA000491E214099409E40761E16403143F0BCAA
:101DB00000F098BD0CED00E0064900F0070208684D
:101DC0004FF6FF03184040EA0220034A1043086020
:101DD000704700000CED00E00000FA052DE9F04727
:101DE000DFF83C8105460E46D8F8000000F00700F9
:101DF000B0420CD2D8F8001021F007013143C8F8E6
:101E00000010D8F8000000F00700B04263D1287835
:101E1000444C800705D56068A96820F0F0000843AD
:101E200060602878C00745D06868012816D021680E
:101E3000022816D0890700294DDA616821F00301D4
:101E400001436160FFF728FF6968074641F2883067
:101E500001290FD00229814619D027E02168890382
:101E6000E9E78901E7E700BFFFF716FFC11B494516
:101E700001D918E081466068C0F381000128F3D1E0
:101E800018E000BFFFF708FFC11B49450BD8606889
:101E9000C0F381000228F5D10CE000BFFFF7FCFE83
:101EA000C11B494502D90320BDE8F087606810F0E6
:101EB0000C0FF3D1D8F80010404601F00701B142F1
:101EC0000BD9016821F0070131430160006800F07F
:101ED0000700B04201D00120E6E72878400705D589
:101EE0006068E96820F4E0600843606028780007D3
:101EF00006D56068296920F4605040EAC10060603E
:101F000000F036F86168084AC1F30311515CC8401B
:101F1000064908600F20FFF7DFFE0020C4E700003D
:101F20000020024000100240704A000848000020D3
:101F30000448054900684968044AC1F30221515C1C
:101F4000C84070474800002000100240804A000846
:101F50000448054900684968044AC1F3C221515C3C
:101F6000C84070474800002000100240804A000826
:101F7000F0B524A289B00FCA04AC84E80F0025A1F3
:101F80000FC98DE80F002748416801F00C02042AB0
:101F900004D0082A04D0244809B0F0BD2348FBE748
:101FA00004AAC1F38343C903D45C28D5C16AC26AB9
:101FB00001F00F011DF80110D20316D5C26AC06AE4
:101FC000C2F30312521CA2FB0123C0F30320801CA6
:101FD000A0FB0415154F0026A1FB070C05FB07C548
:101FE00001FB0651FEF71CF903E010486043B0FB0B
:101FF000F1F09DF81D10A142CED14008CCE70C486D
:102000006043C9E700000405060708090000000056
:10201000000D00000102030405060708090A0B0C65
:102020000D0E0F100010024000127A00001BB700C6
:1020300000093D002DE9F84F04460078EA4DC0073D
:1020400048D06868C0F38100012807D06868C0F3F1
:102050008100022809D16868C00306D5286880037A
:1020600038D5A06800286FD034E0A068B0F5803F74
:102070000BD010B1B0F5A02F11D0286820F480301B
:102080002860286820F4802002E0286840F480302E
:102090002860A06888B1FFF7FFFD064609E02868C0
:1020A00040F480202860F0E7FFF7F6FD801B6428ED
:1020B00078D828688003F7D50CE0FFF7EDFD0646D9
:1020C00005E000BFFFF7E8FD801B6428F0D8286812
:1020D0008003F7D42078C54E80074FF001094FF0F8
:1020E00000073CD5686810F00C0F07D06868C0F393
:1020F0008100022809D16868C00306D428688007D7
:1021000015D5606901281FD111E06069B8B1C6F822
:102110000090FFF7C1FD804606E000BFFFF7BCFD61
:10212000A0EB08000228C3D828688007F6D52868E5
:10213000A16920F0F80040EAC10028600FE0376094
:10214000FFF7AAFD804607E02DE100BFFFF7A4FDE1
:10215000A0EB08000228ABD828688007F6D42078C6
:1021600000072ED5A248E169E9B1C0F80090FFF759
:1021700093FD804606E000BFFFF78EFDA0EB080050
:10218000022895D8686A8007F6D59A484FF4FA5124
:102190000068B0FBF1F0009000BF0098411E009174
:1021A000FAD20EE0B0E00760FFF776FD804605E06A
:1021B000FFF772FDA0EB0800022887D8686A800745
:1021C000F6D42078400763D5E8694FF00008C000D6
:1021D00009D4E86940F08050E861E8694FF00108EF
:1021E00000F08050009084480168C90512D401684D
:1021F000834641F480710160FFF74EFD824605E0A1
:10220000FFF74AFDA0EB0A0064287DD8DBF8000048
:10221000C005F5D5206901280AD008B1052813D0DA
:10222000286A20F001002862286A20F0040002E0F9
:10223000286A40F001002862206941F2883B98B189
:10224000FFF72AFD82460BE0286A40F0040028626E
:10225000EEE700BFFFF720FDA0EB0A01594553D878
:10226000286A8007F6D50CE0FFF716FD824605E0E8
:10227000FFF712FDA0EB0A01594545D8286A8007EF
:10228000F6D4B8F1000F03D0E86920F08050E8617F
:10229000E06AD0B36968C90307D56968C1F38101F1
:1022A000022902D1E96AC9037DD4022808D0E86A6C
:1022B00020F48030E862B766FFF7EEFC80463BE032
:1022C0002868C00005D5E86A616B00F0F00088421C
:1022D00069D1B766FFF7E0FC804605E0FFF7DCFC5C
:1022E000A0EB0800642874D828680001F6D4E86AD6
:1022F000616B20F0F0000843E862E86A216B20F48B
:1023000070600843E86201E063E018E0C6F8689096
:10231000FFF7C2FC804605E0FFF7BEFCA0EB08001B
:10232000642856D828680001F6D508E0FFF7B4FC09
:10233000A0EB080064284CD828680001F6D4206A75
:1023400090B36968C1F3810102294AD00228376637
:1023500003D0FFF7A1FC04463EE0FFF79DFC0746D3
:1023600005E000BFFFF798FCC01B022831D82868A1
:102370008001F7D4606AB0F5803F09D1E86A6168EE
:102380000843E862E86AE16820F00F000843E86269
:10239000D4E909010843696821F4741108436860AD
:1023A000C6F8609001E01CE019E0FFF775FC0446F8
:1023B00005E000BFFFF770FC001B022809D8286861
:1023C0008001F7D50BE000BFFFF766FC001B022879
:1023D00002D90320BDE8F88F28688001F4D40020DA
:1023E000F8E70120F6E7000000100240000042423A
:1023F00080044242480000200070004010B5401E9A
:10240000B0F1807F01D3012010BD4FF0E024606166
:102410000F21601700F066FA0020A06107202061FC
:10242000002010BD08B5C16B082903D10068016800
:102430004068009008BD000070B50268044610684E
:10244000D168536910F00F0F51D003F0010501F46A
:10245000907635435DD0C20705D0CA0503D5E26B3F
:1024600042F00102E263420705D5DA0703D0E26BCE
:1024700042F00202E263820705D5DA0703D0E26B7D
:1024800042F00402E263020705D5DA0703D0E26BEB
:1024900042F00802E263E26B002A34D0800604D5E1
:1024A000880602D5204600F0E3FB20684069E16B16
:1024B000C0F3801001F008010143204624D000F051
:1024C0009FFB2068416949061AD5416921F0400106
:1024D0004161606BA0B11B494163606BFFF7ACF8D1
:1024E000002810D0606B416BBDE870400847830640
:1024F0000FD58B060DD52046BDE8704000F0B8BB67
:102500002046FFF78FFF70BDFFF78CFF0020E063D0
:1025100070BD030606D50B0604D52046BDE8704005
:1025200000F0AABC4006F3D54806F1D5D168204694
:1025300021F04001D160202184F8391000F0DCF84E
:1025400070BD0000612B000870B5040004D094F841
:102550003900002510B106E0012070BD84F8385024
:10256000204600F023F8242084F839002068C16850
:1025700021F40051C160204600F0C6FB20680169CB
:1025800021F4904101612068416921F02A014161F3
:102590002068C16841F40051C160E563202084F8DF
:1025A000390084F83A00002070BD000070B586B094
:1025B000002506460095019502950395006822497D
:1025C00088423FD12149C86940F48020C861C86968
:1025D00000F480200490886940F0080088618869D0
:1025E0001B4C00F008000490081500900220019098
:1025F0000320039069462046FFF766FAE014CDE910
:102600000005694620460295FFF75EFA124C114814
:10261000C4E900058020C4E9025020202561C4E9F6
:1026200005502046E561FFF7C3F908B1FEF767FCE6
:1026300074630022052127206662FFF79DFB272097
:10264000FFF78EFB06B070BD00480040001002404E
:10265000000C014030000240C4090020F8B50446D7
:1026600090F83A0020283CD1C1B3BAB394F83800AE
:10267000012836D0012084F83800A162A285002507
:10268000E563222084F83A00636B17489862636B15
:102690001648D862636B16481863606B134645632F
:1026A0000846666B216802463046091DFFF7C2F9ED
:1026B000206801684168009184F83850C16841F48D
:1026C0008071C1602068416941F001014161206869
:1026D000416941F0400141610020F8BDFFE7012060
:1026E000FBE70220F9E70000BB2B0008F72B0008EE
:1026F000712B0008704770477047FEE7104810B50F
:102700000E4901600321416000214FF4A022816045
:10271000C0E903124FF48002C0E905210122C0E99B
:1027200007214162C0E90A12FEF78AFD002803D0A2
:10273000BDE81040FEF7E3BB10BD000000640040A0
:10274000A8060020094808B5416941F0010141612E
:102750004069002200F00100009005210D20FFF7E4
:102760000BFBBDE808400D20FFF7FABA001002404D
:1027700010B59CB01C2216496846FDF792FD002159
:10278000684601F060FB134C11491C2220601C318B
:1027900007A8FDF786FD002107A801F054FB0C49AE
:1027A00060601C2238310EA8FDF77BFD00210EA8C9
:1027B00001F049FB0649A0601C22543115A8FDF721
:1027C00070FD002115A801F03EFBE0601CB010BDBB
:1027D000004A0008380000202DE9F04786B00024A8
:1027E0002D480094019402940394816941F02001E2
:1027F0008161816901F020010491816941F010013A
:102800008161816901F010010491816941F0040145
:102810008161816901F004010491816941F008013D
:1028200081618069DFF8748000F008000490002264
:10283000F0214046FFF72AFADFF8649000220321D6
:102840004846FFF723FA0326CDE90064DFF854A0D9
:10285000694650460294FFF737F9F0200125022718
:10286000CDE90005CDE9024769464046FFF72CF95E
:1028700003970096CDE9015469464846FFF724F9CD
:102880004FF470708DE8310069465046FFF71CF92F
:1028900006B0BDE8F08700000010024000080140CB
:1028A000000C0140001001400C4810B50A490160BD
:1028B0004FF4E1314160002181600C22C160C0E928
:1028C00004128161C161FFF73FFE002803D0BDE81B
:1028D0001040FEF714BB10BD0048004084090020E2
:1028E000FEE770470907090E002806DA00F00F001E
:1028F00000F1E02080F8141D704700F1E02080F81E
:1029000000147047F0B514460E460746FEF7F8FA75
:102910000346384600F0A6F80146002002E03A5C83
:102920003254401C9842FADB0025F554581C06E04E
:10293000A0EB030C3A5CA444401C0CF8012C884228
:10294000F6DB65545B1C04D131463846FEF716FAB7
:102950002570F0BD2DE9FE4F80460020824683465B
:1029600004460546CDF8080018F8001059B1A1F149
:1029700030020A2A03D32E2901D02D2903D1401C6D
:10298000C0B20A28F0D38146002605E018F80610E8
:102990002E2903D0761CF6B28642F7D3002716E024
:1029A00018F807002D2818D03038FDF772FECDE951
:1029B00000010022284B50465946FDF77BFDDDE91A
:1029C0000023FDF7D0FC82468B467F1CFFB2B74246
:1029D000E6D37F1CFEB2019619E001200290F4E7D5
:1029E00018F8060030380A2813D2FDF752FE0746C1
:1029F00000910022184B20462946FDF75BFD3A4620
:102A0000009BFDF7B0FC761C04460D46F6B24E4521
:102A1000E6D301980026DFF84480A9EB000709E01F
:102A200042460F4B20462946FDF744FD761C0446DE
:102A30000D46F6B2B742F3DC22462B4650465946C5
:102A4000FDF791FC029A0AB181F0004103B0BDE8A4
:102A5000F04FFDF761BE0000000024409A9999995B
:102A60009999B93F014600200A5C401C002AFBD11D
:102A7000401E704770B50B46074C04E0E618C55C75
:102A8000761A5B1C35709342F8DB00202244511A01
:102A90000870014870BD00005802002010B5FFF713
:102AA00001F901F0CBFE012803D0BDE8104001F090
:102AB00059BE10BD70B594B038216846FDF70AFCC8
:102AC00014210EA8FDF706FC012500242804CDE9F9
:102AD00002040226CDE908600095059501940001E5
:102AE000CDE90A046846FFF7A5FA0F20CDE90E06E6
:102AF000A802CDE9104002210EA81294FFF76EF94A
:102B00000148056714B070BD0000424210480168DA
:102B100041F00101016041680E4A114041600168C5
:102B20000D4A11400160016821F480210160416873
:102B300021F4FE014160016821F0A05101604FF4D1
:102B40007F0181600021C1620449C00308607047B1
:102B5000001002400000FFF0FFFFF6FE08ED00E06D
:102B600010B5406A0021C185C184FFF75BFC10BD30
:102B700070B5446A2068406994F83910C0F3C010F9
:102B80000025212904D118B1E584204600F046F83B
:102B90002068406994F83A10C0F38010222904D1CB
:102BA00018B1E585204600F02BF8E06B40F01000EE
:102BB000E0632046FFF736FC70BD10B50146406A61
:102BC00009680968890613D40021C1850168CA68AB
:102BD00022F48072CA6001684A6922F001024A61E7
:102BE00001684A6922F040024A61202180F83A10C7
:102BF000FFF780FD10BD10B5406AFFF77CFD10BDEA
:102C00000168CA6822F49072CA6001684A6922F0B9
:102C100001024A61202180F83A1070470168CA68B1
:102C200022F0C002CA60202180F8391070470000ED
:102C300008B500680A49884211D10A48006801684D
:102C4000C943C9060BD401684068009001220649B7
:102C50000448FFF703FD05490888401C088008BDAB
:102C600000480040840900205C0100200000002092
:102C700010B590F83A10222901D0022010BD8168C9
:102C8000B1F5805F11D00169002901681FD0496842
:102C900001F07F03816A4A1C82620B70C18D491E5C
:102CA0000904090CC18518D02BE00269816A002A49
:102CB0000268526805D0D2B20A80816A491C8162DA
:102CC000ECE7C2F308020A80816A891CF7E74A68C8
:102CD000816A4B1C83620A70E0E70168CA6822F0CF
:102CE0002002CA600168CA6822F48072CA60016862
:102CF0004A6922F001024A61202180F83A10FFF768
:102D0000F9FC002010BD00002DE9F04104460068E8
:102D10000169E26821F44051114301612169A06811
:102D20000843616908432168CA6841F20C639A4309
:102D30000243CA6020684169A26921F440711143CD
:102D400041614C4920686425322688423CD1FFF716
:102D5000FFF800EBC00101EB001061688900B0FBD7
:102D6000F1F7FFF7F5F800EBC00101EB0010616827
:102D7000B0468900B0FBF1F0B0FBF5F06FF0180140
:102D8000484307EB800106EB0110B0FBF5F000F0C3
:102D9000F006FFF7DDF800EBC00101EB0010616801
:102DA0008900B0FBF1F0B0FBF5F006EB0016FFF781
:102DB000CFF800EBC00101EB001061688900B0FBA7
:102DC000F1F7FFF7C5F83BE0FFF7B2F800EBC00101
:102DD00001EB001061688900B0FBF1F7FFF7A8F87C
:102DE00000EBC00101EB00106168B0468900B0FB48
:102DF000F1F0B0FBF5F06FF01801484307EB8001EC
:102E000006EB0110B0FBF5F000F0F006FFF790F8CC
:102E100000EBC00101EB001061688900B0FBF1F02C
:102E2000B0FBF5F006EB0016FFF782F800EBC001EF
:102E300001EB001061688900B0FBF1F7FFF778F84B
:102E400000EBC00101EB001061688900B0FBF1F0FC
:102E5000B0FBF5F06FF01801484307EB800108EB79
:102E60000110B0FBF5F0216800F00F0030448860DD
:102E7000BDE8F0810038014090F83910212901D0D7
:102E8000022070478168B1F5805F016A0BD04A1C4F
:102E90000262026809785160C18C491E0904090C5C
:102EA000C1840ED017E009880268C1F3080151609F
:102EB00001690029016A02D0491C0162ECE7891C02
:102EC000FBE70168CA6822F08002CA600068C16836
:102ED00041F04001C16000207047000010B5044877
:102EE000FFF7AAFABDE810400148FFF7A1BE0000B5
:102EF00084090020FEE700000FB4054B10B503A9BC
:102F0000044A029800F0CAF810BC5DF814FB0000F7
:102F10005D3A0008B800002002E008C8121F08C18E
:102F2000002AFAD170477047002001E001C1121F4A
:102F3000002AFBD1704700002DE9FF5FDDE9022088
:102F4000010DDDF838B0024318D044F61050A1F25C
:102F5000FF3141430D140F98012820D0A5EB0B0041
:102F6000401C5FEA000A4FF00004474EDFF81C9156
:102F7000A046504616D5CAF1000728E00F98012454
:102F800043A2012808D0002100980F9BC0E900212E
:102F9000C0E90243BDE8FF9F6FEA0B01F4E7CBF104
:102FA0000000DEE7074612E0F80707D02246334666
:102FB00040464946FDF77EFA80468946224633461A
:102FC00010461946FDF776FA04460E467F10002F8C
:102FD000EAD1DDE90201BAF1000F42464B4602DABE
:102FE000FDF768FA01E0FDF7D7FA04460E46002225
:102FF000284BFDF791FC03D84FF0FF30014607E066
:103000000022254B20463146FDF7ADF9FDF76BFC5C
:10301000102409E0002C0ADB0A220023FDF700F946
:10302000019B30321A55641E50EA0102F2D1641C31
:10303000019AC4F1110314440F9A012A03D001220A
:1030400008430DD10AE0084304D000204FF0110BD3
:103050000F9080E7A3EB0B056D1E0DE05B4504DDD3
:103060004FF0000205F1010504E003DA4FF0000221
:10307000A5F10105002AECD000980F99C0E90231B2
:10308000C0E9004586E70000000024400000F03F52
:10309000300000000000F0430000E03F2DE9FF4F4A
:1030A00095B09B468946064600250FE2252877D134
:1030B00000242746F84A0121059400E0044316F84D
:1030C000013F203B01FA03F01042F7D130782A2863
:1030D00011D06FF02F033078A0F13002092A16D8F2
:1030E000059A44F0020402EB820203EB4202104410
:1030F000761C0590EFE759F8042B0592002A03DAB5
:10310000504244F40054059044F00204761C307898
:103110002E2816D116F8010F44F004042A280DD0E9
:103120006FF02F023078A0F13003092B09D807EB9C
:10313000870302EB4303C718761CF3E759F8047BB7
:10314000761C30786C280FD006DC4C2817D0682805
:103150000DD06A2814D104E0742810D07A280FD139
:103160000DE044F400140AE044F4801401E044F457
:1031700040147278824202D104F58014761C761CC9
:10318000307866280BD013DC582877D009DC00286B
:1031900075D04528F6D04628F4D047281AD19DE1AD
:1031A00018E0632835D0642879D0652812D195E1DC
:1031B000702873D008DC6728F1D069286FD06E289A
:1031C0000DD06F2806D1B5E073282CD0752875D0A6
:1031D000782874D05A46179990476D1C75E1C4F34E
:1031E0000250022809D003280DD0D9F80010042875
:1031F0000DD00D6009F1040967E1D9F80010EA1754
:10320000C1E90052F6E7D9F800100D80F2E70D7021
:10321000F0E719F8041B8DF8001000208DF801006C
:10322000EA46012003E059F804AB4FF0FF30610794
:103230004FF0000102D40DE008F101018846B942C7
:103240000FDA8045F8DB1AF808100029F4D108E0FD
:1032500008F1010188468142FADB1AF808100029BA
:10326000F6D105985B46A0EB080721463846179A29
:1032700000F094FA284400EB080507E04DE029E14E
:103280000DE01AF8010B5A4617999047B8F101085A
:10329000F7D25B4621463846179A13E142E00A22EC
:1032A0000092C4F302524FF0000A022A08D059F8E3
:1032B00004CB032A4FEAEC710AD00DE029E02AE0A2
:1032C00009F1070121F00702F2E802C1914609E085
:1032D0000FFA8CFC4FEAEC71042A03D14FFA8CFCF4
:1032E0004FEAEC71002907DA0A460021DCF1000CF4
:1032F00061EB02012D2202E0220504D52B228DF87C
:103300000420012203E0E20701D02022F7E79046E3
:1033100059E00A2102E010220DE010214FF0000ACE
:1033200000910BE010224FF0000A44F0040408273B
:10333000009203E008224FF0000A0092C4F3025208
:10334000022A05D059F804CB0021032A08D009E04D
:1033500009F1070121F00702F2E802C1914605E0F8
:103360001FFA8CFC042A01D10CF0FF0C4FF000086E
:10337000220728D5702806D0009B83F0100353EA5B
:103380000A0305D00EE040228DF80420012208E057
:103390005CEA010206D030228DF804208DF8050089
:1033A00002229046009B83F0080353EA0A030AD1E5
:1033B0005CEA010201D1620705D530228DF80420B4
:1033C0004FF001087F1E582804D034A003900EA8A7
:1033D00002900DE036A0F9E753466046009AFCF7EC
:1033E0001FFF84460398825C0298401E0290027080
:1033F0005CEA0100F0D1029806A9081A00F1200A3F
:10340000600702D524F4803400E00127574502DD2F
:10341000A7EB0A0000E0002000EB0A0100900598ED
:103420004144401A0590E00306D45B462146179AB2
:10343000059800F0B3F90544002706E001A85A46B4
:10344000C05D179990476D1C7F1C4745F6DBE00374
:103450000CD55B462146179A059800F09FF9054464
:1034600004E030205A46179990476D1C0099481E79
:1034700000900029F5DC08E0029802995A4600788D
:10348000491C0291179990476D1CBAF10001AAF1ED
:10349000010AF1DC65E10000092801003031323316
:1034A0003435363738396162636465660000000080
:1034B000303132333435363738394142434445466A
:1034C0000000000000F058F90544761C3078002810
:1034D0007FF4ECAD19B02846BDE8F08F620700D448
:1034E000062709F1070222F0070CFCE80223E14657
:1034F00003F000485FEA080C02D00FF2702C0DE0D8
:103500005FEA045C02D50FF2682C07E05FEAC47C36
:1035100002D00FF2602C01E0AFF2700C4FF0FF38D8
:1035200023F00043CDF850C065280CD006DC4528B8
:1035300009D046281DD047283DD13DE0662818D047
:1035400067287ED138E00021112F01DB112000E037
:10355000781CCDE9000106A90EA8FFF7EDFCDDE916
:103560000F010E9A03910021009207F1010A0491C4
:103570004DE04FF000400097CDE9011006A90EA8DC
:10358000FFF7DAFCDDE90F0203920E9B119900228E
:10359000DDF80CA00093049211B9791C00EB010A2C
:1035A000B7EB0A0004D4C0F1FF3007F1010A049020
:1035B000AAEB0700019044E0012F00DA0127002167
:1035C000112F01DD112000E03846CDE9000106A9E8
:1035D0000EA8FFF7B1FCDDE90F010E9A039100215F
:1035E00004910092BA4621070CD40399514500DAA0
:1035F0008A46BAF1010F05DD009AAAF10101515C7A
:10360000302908D0B84202DA10F1040F06DA01219D
:10361000CDE9011015E0AAF10101E9E7002805DC78
:10362000049901440491AAEB000102E0411C5145B8
:1036300000DD8A460499401A401C01904FF000407A
:103640000290200704D40198504501DBCDF8048096
:1036500000208DF84F0002980DF14F07B0F1004F98
:1036600025D02B200E9002984FF0020800280CDA8B
:10367000404202902D200E9007E00A210298FDF7AB
:1036800067F83031029007F8011DB8F10001A8F188
:103690000108F2DC02980028EFD1791E0E9808701C
:1036A000307800F0200040F0450007F8020D12A825
:1036B000C01B00F107081498007800B1012000EB4E
:1036C0000A01019801EBE07105984144401A401E3F
:1036D0000590E00306D45B462146179A059800F052
:1036E0005DF805441498007818B15A461799904728
:1036F0006D1CE00324D55B462146179A059800F01F
:103700004DF805441CE00498002807DBDDE90301BF
:10371000884203DD0098405C179901E0179930203A
:103720005A469047049805F10105401C0490019801
:10373000401E019004D12E205A46179990476D1CC7
:10374000BAF10001AAF1010ADDDC05E017F8010B6E
:103750005A46179990476D1CB8F10001A8F101086D
:10376000F4DC5B462146179A0598ABE62D00000075
:103770002B000000200000002DE9F0410446002548
:103780001E461746880404D405E039462020B04779
:103790006D1C641EF9D52846BDE8F0812DE9F04185
:1037A000044600251E469046C80301D5302700E098
:1037B0002027880404D505E041463846B0476D1CF3
:1037C000641EF9D52846BDE8F081000010B5074811
:1037D000FDF796F9054801684A6942F002024A611C
:1037E0000068416941F00101416110BDA806002057
:1037F0002DE9F04107463EA1FDF7A8FA00286AD15D
:103800003CA13846FDF7A2FA002864D13AA1384617
:10381000FDF79CFA00285ED138A13846FDF796FAEC
:10382000002858D136A13846FDF790FA354C364D70
:10383000364E38B16068FCF75CFF2A463346FCF729
:1038400092FD25E032A13846FDF780FA38B1606973
:10385000FCF74FFF2A463346FCF785FD28E02DA1F3
:103860003846FDF773FA38B12069FCF742FF2A4663
:103870003346FCF778FD2BE027A13846FDF766FAC2
:1038800050B16068FCF735FF2A463346FCF70CFE62
:10389000FCF742FF60601EE020A13846FDF756FAB3
:1038A00050B16069FCF725FF2A463346FCF7FCFD62
:1038B000FCF732FF60610EE019A13846FDF746FAC9
:1038C00060B12069FCF715FF2A463346FCF7ECFD92
:1038D000FCF722FF20610020BDE8F08111A13846ED
:1038E000FDF734FA0028F7D0002060602061E1E79E
:1038F000610000006200000063000000640000003E
:1039000075000000040000209A9999999999A93F9F
:10391000690000006F0000006A0000006B000000FA
:103920006C000000700000000D4C0E4D4FF4FA7654
:103930000DA0FFF7E1FA218812A0FFF7DDFA218C34
:1039400017A0FFF7D9FAB4F840101CA0FFF7D4FA7B
:10395000298821A0FFF7D0FA304600F055FAE7E7B2
:10396000FC0000200000002023204D4F544F204534
:10397000434420524556454E4C454E5420233A2050
:103980000D0A00004D6F746F446174615B4C656695
:1039900074466C69705D203D202564200D0A00008E
:1039A0004D6F746F446174615B5269676874466CF3
:1039B00069705D203D202564200D0A004D6F746FF5
:1039C000446174615B4D6964536C69705D203D2096
:1039D0002564200D0A00000075617274436E742026
:1039E0003D202564200D0A0070B50D46018804466F
:1039F0004180807F184E48B1288840BA411A208003
:103A0000B1F5805F10DDE168491E12E00120A0776A
:103A10000020E060288840BAA083FCF735FE3146DC
:103A2000FCF763FCA06170BD11F5805FE16801DA0D
:103A3000491CE16000EB4130A18B401A2061FCF78A
:103A40001AFE3146FCF751FC6061688840BAE0809C
:103A5000688840BA208170BD610BB64104490A688C
:103A60005206FCD5024AC1B2121D11607047000017
:103A70000048004001A0FFF73FBA0000476F310D3A
:103A80000A000000EFF30580002800D001207047F5
:103A9000FEF710F9FFF70EF8FEF79EFEFEF72EFE7A
:103AA000FEF750FEFEF700FFFFF790FE00F03AFC35
:103AB0004FF4FA70FDF7F6FFFEF75AFE00F0B2F988
:103AC000FEE74FF47A74204600F09EF9FBE70146CA
:103AD0000020842900D0C81C7047000008B5344E6F
:103AE000012202213046FEF7D1F80122114630466C
:103AF000FEF7CCF800F09BF9DFF8B8804FF06409CE
:103B00002D4D002708F16804CDF80000FEF7C4F839
:103B10006968401AA860FEF7BFF868600121304666
:103B2000FEF7B0F800F07AF8D8F8001011B10122D1
:103B3000022103E00022A8F8647001213046FEF75C
:103B4000A5F800204FEA090200EB400104EB410315
:103B50004FF47A7C5B88401C03FB0CF3B3FBF2F35D
:103B600024F811300528EFDB2088B0F5C87F01D993
:103B70000120287011A0FFF7BFF9218815A0FFF7D9
:103B8000BBF9E18819A0FFF7B7F9A1891DA0FFF7DC
:103B9000B3F9002000EB400104EB4101401C0F6031
:103BA0008F800528F6DB6421684600F034F9ADE724
:103BB000000C0140E005002028000020232346508F
:103BC0005320524556454E4C454E54203A2023230F
:103BD0000D0A00004650535B4C656674466C697074
:103BE0005D203D202564200D0A0000004650535BF7
:103BF0005269676874466C69705D203D20256420B9
:103C00000D0A00004650535B4D6964536C69705D4A
:103C1000203D202564200D0A000000002DE9F04120
:103C20004FF00008464601254746134CFEF734F88E
:103C300004EBC501CA689388C01A80B250800A7A22
:103C400072B1CA68128890420AD901204872887AF3
:103C5000761C404505DD083121608046257100E075
:103C60004F726D1CEDB2072DE0D9002E01D12760F7
:103C70002771BDE8F0810000E00500202DE9FF413B
:103C8000144DD5E90201FCF747FD134C6060D5E9FE
:103C90000401FCF741FDA060D5E90601FCF73CFDFD
:103CA000E0600EA0FFF728F9E068FCF722FD074668
:103CB0008846A068FCF71DFD05460E466068FCF7C7
:103CC00018FD8DE8E00102460B4609A0FFF714F944
:103CD000BDE8FF81C002002004000020232323232D
:103CE0002323232323232323232323230D0A000019
:103CF000504F3A256620494F3A256620444F3A25D1
:103D0000660D0A002DE9FF41144DD5E90201FCF7CB
:103D100003FD134C2061D5E90401FCF7FDFC606153
:103D2000D5E90601FCF7F8FCA0610EA0FFF7E4F866
:103D3000A069FCF7DEFC074688466069FCF7D9FC01
:103D400005460E462069FCF7D4FC8DE8E0010246EA
:103D50000B4609A0FFF7D0F8BDE8FF81C0020020A4
:103D6000040000202323232323232323232323238B
:103D7000232323230D0A000050493A256620494990
:103D80003A25662044493A25660D0A007CB50AA00A
:103D9000FFF7B2F80D4E306AFCF7ABFC04460D4657
:103DA000F069FCF7A6FC02460B4609A0CDE90045E8
:103DB000FFF7A2F87CBD0000232323232323232322
:103DC00023232323232323230D0A000004000020A0
:103DD0006D61786F7574313A2566206D61786F7505
:103DE00074323A25660D0A00054910B5D1E904017F
:103DF000FCF760FCFCF73FFC0249886110BD000045
:103E0000C00200200400002010B500B9012000F01D
:103E100097FB002010BD10B501B9012100F0B6FBE1
:103E2000002010BD10B500F0F7FB002010BD10B54C
:103E3000FFF728FE18B1BDE8104000F013BDBDE843
:103E4000104000F009BD7FB50D4604464169B0F948
:103E5000080081B1A16971B1FFF739FED4E90512FB
:103E60008DE80700D4E900102B46226900F0BDFC64
:103E7000039004B070BDFFF72AFE03A9CDE900014D
:103E8000208A2B4682B2D4E9001000F081FC012880
:103E900001D00020EDE70398EBE7000008B50A4CDD
:103EA00000254FF4C8774FF400762078012806D11A
:103EB0003B4639461A4630460095FCF75FFD052023
:103EC000FFF7A2FFF1E70000280000202DE9F041F4
:103ED000184C0F460546E6682068001D00F046FABB
:103EE00038B9206890F82C1001208840216981435E
:103EF0002161681C07D137B12168BDE8F0410E4847
:103F0000091D00F075BA20683544B5424560216846
:103F100005D2A06BBDE8F041091D00F051BA606BFD
:103F2000091D00F04DFAA06A854200D2A562BDE8E5
:103F3000F081000058000020E40A00202DE9F04143
:103F4000054600F061FA2E4CA068401CA060206875
:103F50002C4F10B1606940B32DE02560A0680128A6
:103F600029D1002606EB860007EB800000F01AFA44
:103F7000761C072EF6D323488C3000F013FA214824
:103F8000A03000F00FFA1F48B43000F00BFA1D48C3
:103F9000C83000F007FA1B48DC3000F003FA19487B
:103FA0008C3060631430A06305E02068E96AC06A61
:103FB000884200D82560606A401C6062E96A01207E
:103FC000226988401043206101EB810007EB8000EB
:103FD000291D00F00DFA00F037FA606900280CD0B6
:103FE0002068E96AC06A884207D207494FF08050CA
:103FF0000860BFF34F8FBFF36F8FBDE8F081000003
:1040000058000020080A002004ED00E070B5114EB1
:10401000114C17E000F036FB3068B8B100F08EFCB0
:1040200000F0F2F9F068C568281D00F09FF9A0685B
:10403000401EA0606068401E606000F005FA2846DF
:1040400000F00CF860680028E4D170BD00F076FC48
:10405000F8E70000D00A00205800002010B5044600
:1040600090F8510058B101280CD002280FD05020F0
:1040700080F31188BFF34F8FBFF36F8FFEE7206B84
:1040800000F0F6F92046BDE8104000F0F1B910BD8F
:1040900010484FF48051420706D0C01D0D4920F052
:1040A0000700411AC1F580510B4A00230144C2E9BF
:1040B00000030839103A21F0070111604B600B60D2
:1040C0000B1AC0E9001393604FF000405360D060BA
:1040D00070470000F80A0020A4000020074C4FF0B1
:1040E0008056074DFFF792FF20680128FAD92E600D
:1040F000BFF34F8FBFF36F8FF4E70000080A002073
:1041000004ED00E02DE9F0479A46DDE90984814697
:104110006FF00303206B03EB82021044089D20F034
:104120000706700707D0502080F31188BFF34F8F28
:10413000BFF36F8FFEE723180A5C83F834200A5C14
:1041400012B1401C1028F6D3002784F84370072DC5
:1041500000D30625E562C4E91157201D00F02DF9B2
:1041600004F1180000F029F92461C5F10700646228
:10417000A061E76484F8507052464946304600F02A
:10418000BFF82060B8F1000F01D0C8F80040BDE8CA
:10419000F087000030B5114900E011460A688242FC
:1041A000FBD34B685C18844203D1406818444860D4
:1041B000084643681C18944209D1084C103C2468F6
:1041C000A24209D052681A4442600A68126802602A
:1041D000814200D0086030BD0460F9E7A4000020EF
:1041E0000648416B096829B1416BC968C9684968CB
:1041F000816270474FF0FF31FAE70000580000205D
:1042000008484068401C4FF0500080F3118804D0EB
:10421000BFF34F8FBFF36F8FFEE7BFF34F8FBFF337
:104220006F8FFEE7AC0000202DE9F0410546002726
:1042300000F028FA314E306808B9FFF729FFF0681E
:1042400005424BD1C5B3083568070ED005F007000D
:10425000C0F108000544680707D0502080F311889A
:10426000BFF34F8FBFF36F8FFEE72DB370688542AA
:1042700034D82248103001460C6801E020460C4634
:104280006168A94202D221680029F7D131688C42C5
:1042900024D007682168016060680837411B102935
:1042A0000FD96019420708D0502080F31188BFF35E
:1042B0004F8FBFF36F8FFEE710E041606560FFF73F
:1042C00069FF61687068401A7060B268904200D2FD
:1042D000B060F06801430020C4E9000100F02EFB4B
:1042E000780707D0502080F31188BFF34F8FBFF3BA
:1042F0006F8FFEE73846BDE8F08100009400002093
:1043000010B5031F4FF080741C601B1F21F00101CA
:104310001960191F024B0B60143940380A6010BD38
:104320000142000810B50E4C2068416801230D4A77
:104330000D48FDF77FFB2068416941F04001416174
:104340002068C16841F01001C16001220549204682
:10435000FEF784F92068416941F00101416110BD17
:10436000840900205C010020C4090020D0E901324A
:1043700001699A60D0E901235A604A68824201D1FA
:1043800082684A60002202610868401E0860704727
:10439000034B036003F154000860802010607047F5
:1043A0003007002000F108014FF0FF32C0E9011290
:1043B000C160016100210160704700210161704707
:1043C00030B50B685A1C02D000F1080202E0026905
:1043D00004E02246546825689D42FAD953684B6030
:1043E00099608A60516008610168491C016030BDB4
:1043F00042684A6093688B60936859609160086175
:104400000168491C01607047502080F31188BFF398
:104410004F8FBFF36F8F0A494868401C48600128DE
:104420000CD10848006810F0FF0F07D0502080F32F
:104430001188BFF34F8FBFF36F8FFEE77047000007
:10444000AC00002004ED00E00849486828B1401E97
:10445000486001D180F311887047502080F31188A3
:10446000BFF34F8FBFF36F8FFEE70000AC0000205B
:1044700070B5002827D0144DA0F108046168E868E1
:10448000014207D1502080F31188BFF34F8FBFF353
:104490006F8FFEE722683AB1502080F31188BFF396
:1044A0004F8FBFF36F8FFEE78143616000F0EAF842
:1044B00060686968084468602046FFF76BFEBDE8E5
:1044C000704000F03BBA70BD9400002006484FF4E5
:1044D0007A710068B0FBF1F14FF0E020491E4161B4
:1044E00007210161704700004800002010B5FBF76C
:1044F00081FE114910280ED300F1E02090F8F0035E
:104500000A78904207D2502080F31188BFF34F8F72
:10451000BFF36F8FFEE709480068896800F4E06028
:10452000884207D9502080F31188BFF34F8FBFF323
:104530006F8FFEE710BD0000AC0000200CED00E026
:1045400010B5020014D00F48006B38B1502080F332
:104550001188BFF34F8FBFF36F8FFEE700F092F823
:1045600000211046FFF7B2FC00F0E8F9002807D15F
:1045700005494FF080500860BFF34F8FBFF36F8F36
:1045800010BD00005800002004ED00E070B50D469D
:1045900004000BD095B11E4A106BB8B1502080F3C7
:1045A0001188BFF34F8FBFF36F8FFEE7502080F36A
:1045B0001188BFF34F8FBFF36F8FFEE7502080F35A
:1045C0001188BFF34F8FBFF36F8FFEE700F05AF8EB
:1045D000D26823685919934204D98B420AD991426F
:1045E00002D807E08B42FAD9881A21600021FFF730
:1045F0006DFC00E0216000F0A1F9002807D1054919
:104600004FF080500860BFF34F8FBFF36F8F70BDC6
:104610005800002004ED00E010B586B0002403949B
:1046200005AA04A903A80494FFF7B2FEDDE903017B
:104630000094CDE9011000230EA11048059A00F066
:10464000D4F80F490028C86211D0502080F3118897
:10465000BFF34F8FBFF36F8F4FF0FF3088620120A1
:104660004861CC6006B0BDE8104000F041B806B02B
:1046700010BD000049444C4500000000DD4000082A
:10468000580000200248016B491C0163704700007C
:10469000580000201448016B11B10121C16170471D
:1046A0000021C1610169B1FA81F1C1F11F0101EB82
:1046B00081020E4951F822306BB101EB820101F108
:1046C00008034A6852684A609A4201D152684A60B7
:1046D000D16801607047502080F31188BFF34F8F7D
:1046E000BFF36F8FFEE7000058000020080A00208B
:1046F0001CB5194908780190FF20087008788DF8DA
:1047000000009DF80000154A00F0500010700720CE
:10471000906005E09DF800305B008DF80030401E91
:104720009DF800301B06F5D4000200F4E0609060B4
:10473000019808700A48016841F47001016001683D
:1047400041F070410160FFF7C1FE00205060FBF7AF
:104750001BFD00201CBD000000E400E0AC000020B8
:1047600020ED00E010B5502080F31188BFF34F8F8B
:10477000BFF36F8F00F07EF818B104494FF08050FE
:104780000860002080F3118810BD000004ED00E0F7
:104790002DE9FF5F8346DDE90E87994616468A4676
:1047A0009000FFF741FD05001CD05420FFF73CFDB1
:1047B000040014D00020256384F85100CDE90240A4
:1047C000CDE900874B46324651465846FFF79AFCE2
:1047D0002046FFF7B3FB012004B0BDE8F09F284658
:1047E000FFF746FE4FF0FF30F6E7F0B585B0DDE9A4
:1047F0000B640A9D96B1CCB12663022684F8516001
:10480000002604AFCDE90246CDE90057FFF77AFC58
:104810002046FFF793FB049805B0F0BD502080F3CD
:104820001188BFF34F8FBFF36F8FFEE7502080F3E7
:104830001188BFF34F8FBFF36F8FFEE705484169C3
:1048400019B1006B18B10020704701207047022099
:1048500070470000580000200148C0687047000001
:104860005800002010B5FFF741FE0148C06810BD98
:10487000580000202DE9F0412E4C0027206B40B15C
:10488000A069401CA061E06900B101273846BDE87D
:10489000F081E668761CE66013D1606B006838B181
:1048A000502080F31188BFF34F8FBFF36F8FFEE767
:1048B000606BA16B6163A063206A401C2062FFF7FC
:1048C0008FFCA06ADFF87080864209D3606B0068B5
:1048D00080B1606BC068C568686886420DD2A0620E
:1048E0002068C06A00EB800158F821000128CAD96D
:1048F0000127C8E74FF0FF30F1E7281DFFF736FD2D
:10490000A86A18B105F11800FFF730FDE86A012127
:10491000226981401143216100EB800108EB810095
:10492000291DFFF765FDE86A2168C96A8842CDD371
:104930000127CBE758000020080A00202DE9F047A6
:104940002C4D00242746286B38B1FFF75DFD286BFE
:10495000401E2863286B40B146E0502080F3118848
:10496000BFF34F8FBFF36F8FFEE7A968224E012080
:10497000D1B3A6F1B40980463068E8B1F068C468E4
:1049800004F11800FFF7F2FC201DFFF7EFFCE06ACE
:104990002A6908FA00F11143296100EB800109EB53
:1049A0008100211DFFF724FDE06A2968C96A884259
:1049B000E2D3C5F81C80DFE70CB1FFF711FCAC694E
:1049C00044B14646FFF756FF00B1EE61641EF9D1CF
:1049D0000020A861E86938B1084901273807086054
:1049E000BFF34F8FBFF36F8FFFF72EFD3846BDE843
:1049F000F087000058000020BC0A002004ED00E011
:104A0000AC4A000829390008FDFF00000000000042
:104A1000000100000000000000000000884A0008BB
:104A20009D3E0008FDFF00000000000000010000A6
:104A30000000000000000000A04A0008C33A00087F
:104A4000FDFF000000000000000100000000000069
:104A500000000000944A0008DD3A0008FDFF000055
:104A600000000000800000000000000000000000C6
:104A7000000000000000000001020304060708090E
:104A8000000000000102030450696454687265610B
:104A9000640000004D696E6F7254616B000000008D
:104AA0004D61696E5461736B00000000646566615E
:104AB000756C745461736B00D84A000800000020C4
:104AC000BC000000182F0008944B0008BC00002018
:104AD0003C1E0000282F000800000000000000001D
:104AE00000000000000000000000000000000000C6
:104AF00000000000000000000000000000000000B6
:104B000000000000000000000000000000000000A5
:104B10000000000000000000000000000000000095
:104B200000A24A0401000000100000000000000084
:104B30000000000000000000000000000000000075
:104B40000000000000000000000000000000000065
:104B50000000000000000000000000000000000055
:104B60000000000000000000000000000000000045
:104B70000000000000000000000000000000000035
:104B80000000000000000000AAAAAAAA000000007D
:044B90000000000021
:04000005080001519D
:00000001FF
